{
  "_format": "hh-sol-artifact-1",
  "contractName": "Multisig",
  "sourceName": "contracts/Multisig.sol",
  "abi": [
    {
      "inputs": [
        {
          "internalType": "uint8",
          "name": "_quorum",
          "type": "uint8"
        },
        {
          "internalType": "address[]",
          "name": "_validSigners",
          "type": "address[]"
        }
      ],
      "stateMutability": "nonpayable",
      "type": "constructor"
    },
    {
      "inputs": [
        {
          "internalType": "uint8",
          "name": "_txId",
          "type": "uint8"
        }
      ],
      "name": "approveTx",
      "outputs": [],
      "stateMutability": "nonpayable",
      "type": "function"
    },
    {
      "inputs": [],
      "name": "noOfValidSigners",
      "outputs": [
        {
          "internalType": "uint8",
          "name": "",
          "type": "uint8"
        }
      ],
      "stateMutability": "view",
      "type": "function"
    },
    {
      "inputs": [],
      "name": "quorum",
      "outputs": [
        {
          "internalType": "uint8",
          "name": "",
          "type": "uint8"
        }
      ],
      "stateMutability": "view",
      "type": "function"
    },
    {
      "inputs": [
        {
          "internalType": "uint256",
          "name": "_amount",
          "type": "uint256"
        },
        {
          "internalType": "address",
          "name": "_recipient",
          "type": "address"
        },
        {
          "internalType": "address",
          "name": "_tokenAddress",
          "type": "address"
        }
      ],
      "name": "transfer",
      "outputs": [],
      "stateMutability": "nonpayable",
      "type": "function"
    },
    {
      "inputs": [],
      "name": "txCount",
      "outputs": [
        {
          "internalType": "uint256",
          "name": "",
          "type": "uint256"
        }
      ],
      "stateMutability": "view",
      "type": "function"
    },
    {
      "inputs": [
        {
          "internalType": "uint8",
          "name": "_newQuorum",
          "type": "uint8"
        }
      ],
      "name": "updateQuorum",
      "outputs": [],
      "stateMutability": "nonpayable",
      "type": "function"
    },
    {
      "inputs": [
        {
          "internalType": "uint256",
          "name": "_amount",
          "type": "uint256"
        },
        {
          "internalType": "address",
          "name": "_tokenAddress",
          "type": "address"
        }
      ],
      "name": "withdraw",
      "outputs": [],
      "stateMutability": "nonpayable",
      "type": "function"
    }
  ],
  "bytecode": "0x60806040523480156200001157600080fd5b5060405162001908380380620019088339818101604052810190620000379190620004a5565b816000806101000a81548160ff021916908360ff16021790555060005b81518110156200017057600073ffffffffffffffffffffffffffffffffffffffff168282815181106200008c576200008b6200050b565b5b602002602001015173ffffffffffffffffffffffffffffffffffffffff1603620000ed576040517f08c379a0000000000000000000000000000000000000000000000000000000008152600401620000e4906200059b565b60405180910390fd5b6001600260008484815181106200010957620001086200050b565b5b602002602001015173ffffffffffffffffffffffffffffffffffffffff1673ffffffffffffffffffffffffffffffffffffffff16815260200190815260200160002060006101000a81548160ff021916908315150217905550808060010191505062000054565b508051600060016101000a81548160ff021916908360ff160217905550600260003373ffffffffffffffffffffffffffffffffffffffff1673ffffffffffffffffffffffffffffffffffffffff16815260200190815260200160002060009054906101000a900460ff1662000271576001600260003373ffffffffffffffffffffffffffffffffffffffff1673ffffffffffffffffffffffffffffffffffffffff16815260200190815260200160002060006101000a81548160ff0219169083151502179055506001600060018282829054906101000a900460ff16620002589190620005ec565b92506101000a81548160ff021916908360ff1602179055505b505062000628565b6000604051905090565b600080fd5b600080fd5b600060ff82169050919050565b620002a5816200028d565b8114620002b157600080fd5b50565b600081519050620002c5816200029a565b92915050565b600080fd5b6000601f19601f8301169050919050565b7f4e487b7100000000000000000000000000000000000000000000000000000000600052604160045260246000fd5b6200031b82620002d0565b810181811067ffffffffffffffff821117156200033d576200033c620002e1565b5b80604052505050565b60006200035262000279565b905062000360828262000310565b919050565b600067ffffffffffffffff821115620003835762000382620002e1565b5b602082029050602081019050919050565b600080fd5b600073ffffffffffffffffffffffffffffffffffffffff82169050919050565b6000620003c68262000399565b9050919050565b620003d881620003b9565b8114620003e457600080fd5b50565b600081519050620003f881620003cd565b92915050565b6000620004156200040f8462000365565b62000346565b905080838252602082019050602084028301858111156200043b576200043a62000394565b5b835b81811015620004685780620004538882620003e7565b8452602084019350506020810190506200043d565b5050509392505050565b600082601f8301126200048a5762000489620002cb565b5b81516200049c848260208601620003fe565b91505092915050565b60008060408385031215620004bf57620004be62000283565b5b6000620004cf85828601620002b4565b925050602083015167ffffffffffffffff811115620004f357620004f262000288565b5b620005018582860162000472565b9150509250929050565b7f4e487b7100000000000000000000000000000000000000000000000000000000600052603260045260246000fd5b600082825260208201905092915050565b7f7a65726f2061646472657373206e6f7420616c6c6f7765640000000000000000600082015250565b6000620005836018836200053a565b915062000590826200054b565b602082019050919050565b60006020820190508181036000830152620005b68162000574565b9050919050565b7f4e487b7100000000000000000000000000000000000000000000000000000000600052601160045260246000fd5b6000620005f9826200028d565b915062000606836200028d565b9250828201905060ff811115620006225762000621620005bd565b5b92915050565b6112d080620006386000396000f3fe608060405234801561001057600080fd5b506004361061007c5760003560e01c80632f430e171161005b5780632f430e17146100d95780633c540687146100f5578063ccb570e314610113578063d40cfc511461012f5761007c565b8062f714ce146100815780631703a0181461009d57806317eff51b146100bb575b600080fd5b61009b60048036038101906100969190610c13565b61014b565b005b6100a561014f565b6040516100b29190610c6f565b60405180910390f35b6100c3610160565b6040516100d09190610c6f565b60405180910390f35b6100f360048036038101906100ee9190610cb6565b610173565b005b6100fd610682565b60405161010a9190610cf2565b60405180910390f35b61012d60048036038101906101289190610d0d565b610688565b005b61014960048036038101906101449190610cb6565b610b77565b005b5050565b60008054906101000a900460ff1681565b600060019054906101000a900460ff1681565b6000600360008360ff168152602001908152602001600020905080600101548160060160009054906101000a900473ffffffffffffffffffffffffffffffffffffffff1673ffffffffffffffffffffffffffffffffffffffff166370a08231306040518263ffffffff1660e01b81526004016101ef9190610d6f565b602060405180830381865afa15801561020c573d6000803e3d6000fd5b505050506040513d601f19601f820116820180604052508101906102309190610d9f565b1015610271576040517f08c379a000000000000000000000000000000000000000000000000000000000815260040161026890610e29565b60405180910390fd5b60008160000154036102b8576040517f08c379a00000000000000000000000000000000000000000000000000000000081526004016102af90610e95565b60405180910390fd5b8060030160149054906101000a900460ff161561030a576040517f08c379a000000000000000000000000000000000000000000000000000000000815260040161030190610f01565b60405180910390fd5b60008054906101000a900460ff1660ff16816005015410610360576040517f08c379a000000000000000000000000000000000000000000000000000000000815260040161035790610f6d565b60405180910390fd5b600260003373ffffffffffffffffffffffffffffffffffffffff1673ffffffffffffffffffffffffffffffffffffffff16815260200190815260200160002060009054906101000a900460ff166103ec576040517f08c379a00000000000000000000000000000000000000000000000000000000081526004016103e390610fd9565b60405180910390fd5b600460003373ffffffffffffffffffffffffffffffffffffffff1673ffffffffffffffffffffffffffffffffffffffff16815260200190815260200160002060008360ff16815260200190815260200160002060009054906101000a900460ff161561048d576040517f08c379a000000000000000000000000000000000000000000000000000000000815260040161048490611045565b60405180910390fd5b6001600460003373ffffffffffffffffffffffffffffffffffffffff1673ffffffffffffffffffffffffffffffffffffffff16815260200190815260200160002060008460ff16815260200190815260200160002060006101000a81548160ff021916908315150217905550600181600501600082825461050e9190611094565b9250508190555080600701339080600181540180825580915050600190039060005260206000200160009091909190916101000a81548173ffffffffffffffffffffffffffffffffffffffff021916908373ffffffffffffffffffffffffffffffffffffffff16021790555060008054906101000a900460ff1660ff1681600501540361067e5760018160030160146101000a81548160ff0219169083151502179055508060060160009054906101000a900473ffffffffffffffffffffffffffffffffffffffff1673ffffffffffffffffffffffffffffffffffffffff1663a9059cbb8260030160009054906101000a900473ffffffffffffffffffffffffffffffffffffffff1683600101546040518363ffffffff1660e01b81526004016106399291906110c8565b6020604051808303816000875af1158015610658573d6000803e3d6000fd5b505050506040513d601f19601f8201168201806040525081019061067c9190611129565b505b5050565b60015481565b600073ffffffffffffffffffffffffffffffffffffffff163373ffffffffffffffffffffffffffffffffffffffff16036106f7576040517f08c379a00000000000000000000000000000000000000000000000000000000081526004016106ee906111a2565b60405180910390fd5b600260003373ffffffffffffffffffffffffffffffffffffffff1673ffffffffffffffffffffffffffffffffffffffff16815260200190815260200160002060009054906101000a900460ff16610783576040517f08c379a000000000000000000000000000000000000000000000000000000000815260040161077a9061120e565b60405180910390fd5b600083116107c6576040517f08c379a00000000000000000000000000000000000000000000000000000000081526004016107bd9061127a565b60405180910390fd5b600073ffffffffffffffffffffffffffffffffffffffff168273ffffffffffffffffffffffffffffffffffffffff1603610835576040517f08c379a000000000000000000000000000000000000000000000000000000000815260040161082c906111a2565b60405180910390fd5b600073ffffffffffffffffffffffffffffffffffffffff168173ffffffffffffffffffffffffffffffffffffffff16036108a4576040517f08c379a000000000000000000000000000000000000000000000000000000000815260040161089b906111a2565b60405180910390fd5b828173ffffffffffffffffffffffffffffffffffffffff166370a08231306040518263ffffffff1660e01b81526004016108de9190610d6f565b602060405180830381865afa1580156108fb573d6000803e3d6000fd5b505050506040513d601f19601f8201168201806040525081019061091f9190610d9f565b1015610960576040517f08c379a000000000000000000000000000000000000000000000000000000000815260040161095790610e29565b60405180910390fd5b6000600180546109709190611094565b90506000600360008381526020019081526020016000209050818160000181905550848160010181905550838160030160006101000a81548173ffffffffffffffffffffffffffffffffffffffff021916908373ffffffffffffffffffffffffffffffffffffffff160217905550338160020160006101000a81548173ffffffffffffffffffffffffffffffffffffffff021916908373ffffffffffffffffffffffffffffffffffffffff160217905550428160040181905550828160060160006101000a81548173ffffffffffffffffffffffffffffffffffffffff021916908373ffffffffffffffffffffffffffffffffffffffff1602179055506001816005016000828254610a829190611094565b9250508190555080600701339080600181540180825580915050600190039060005260206000200160009091909190916101000a81548173ffffffffffffffffffffffffffffffffffffffff021916908373ffffffffffffffffffffffffffffffffffffffff1602179055506001600460003373ffffffffffffffffffffffffffffffffffffffff1673ffffffffffffffffffffffffffffffffffffffff168152602001908152602001600020600084815260200190815260200160002060006101000a81548160ff0219169083151502179055506001806000828254610b699190611094565b925050819055505050505050565b50565b600080fd5b6000819050919050565b610b9281610b7f565b8114610b9d57600080fd5b50565b600081359050610baf81610b89565b92915050565b600073ffffffffffffffffffffffffffffffffffffffff82169050919050565b6000610be082610bb5565b9050919050565b610bf081610bd5565b8114610bfb57600080fd5b50565b600081359050610c0d81610be7565b92915050565b60008060408385031215610c2a57610c29610b7a565b5b6000610c3885828601610ba0565b9250506020610c4985828601610bfe565b9150509250929050565b600060ff82169050919050565b610c6981610c53565b82525050565b6000602082019050610c846000830184610c60565b92915050565b610c9381610c53565b8114610c9e57600080fd5b50565b600081359050610cb081610c8a565b92915050565b600060208284031215610ccc57610ccb610b7a565b5b6000610cda84828501610ca1565b91505092915050565b610cec81610b7f565b82525050565b6000602082019050610d076000830184610ce3565b92915050565b600080600060608486031215610d2657610d25610b7a565b5b6000610d3486828701610ba0565b9350506020610d4586828701610bfe565b9250506040610d5686828701610bfe565b9150509250925092565b610d6981610bd5565b82525050565b6000602082019050610d846000830184610d60565b92915050565b600081519050610d9981610b89565b92915050565b600060208284031215610db557610db4610b7a565b5b6000610dc384828501610d8a565b91505092915050565b600082825260208201905092915050565b7f696e73756666696369656e742066756e64730000000000000000000000000000600082015250565b6000610e13601283610dcc565b9150610e1e82610ddd565b602082019050919050565b60006020820190508181036000830152610e4281610e06565b9050919050565b7f696e76616c696420747820696400000000000000000000000000000000000000600082015250565b6000610e7f600d83610dcc565b9150610e8a82610e49565b602082019050919050565b60006020820190508181036000830152610eae81610e72565b9050919050565b7f7472616e73616374696f6e20616c726561647920636f6d706c65746564000000600082015250565b6000610eeb601d83610dcc565b9150610ef682610eb5565b602082019050919050565b60006020820190508181036000830152610f1a81610ede565b9050919050565b7f617070726f76616c7320616c7265616479207265616368656400000000000000600082015250565b6000610f57601983610dcc565b9150610f6282610f21565b602082019050919050565b60006020820190508181036000830152610f8681610f4a565b9050919050565b7f6e6f7420612076616c6964207369676e65720000000000000000000000000000600082015250565b6000610fc3601283610dcc565b9150610fce82610f8d565b602082019050919050565b60006020820190508181036000830152610ff281610fb6565b9050919050565b7f63616e2774207369676e20747769636500000000000000000000000000000000600082015250565b600061102f601083610dcc565b915061103a82610ff9565b602082019050919050565b6000602082019050818103600083015261105e81611022565b9050919050565b7f4e487b7100000000000000000000000000000000000000000000000000000000600052601160045260246000fd5b600061109f82610b7f565b91506110aa83610b7f565b92508282019050808211156110c2576110c1611065565b5b92915050565b60006040820190506110dd6000830185610d60565b6110ea6020830184610ce3565b9392505050565b60008115159050919050565b611106816110f1565b811461111157600080fd5b50565b600081519050611123816110fd565b92915050565b60006020828403121561113f5761113e610b7a565b5b600061114d84828501611114565b91505092915050565b7f61646472657373207a65726f20666f756e640000000000000000000000000000600082015250565b600061118c601283610dcc565b915061119782611156565b602082019050919050565b600060208201905081810360008301526111bb8161117f565b9050919050565b7f696e76616c6964207369676e6572000000000000000000000000000000000000600082015250565b60006111f8600e83610dcc565b9150611203826111c2565b602082019050919050565b60006020820190508181036000830152611227816111eb565b9050919050565b7f63616e27742073656e64207a65726f20616d6f756e7400000000000000000000600082015250565b6000611264601683610dcc565b915061126f8261122e565b602082019050919050565b6000602082019050818103600083015261129381611257565b905091905056fea26469706673582212200a5e57d544cf181b24534a6dc3b87af39b97600633eb13618b0f2daa8fc9911364736f6c63430008180033",
  "linkReferences": {},
  "deployedLinkReferences": {}
}